{
  "contractName": "TicketSale",
  "abi": [
    {
      "inputs": [
        {
          "internalType": "address",
          "name": "_diaTokenAddress",
          "type": "address"
        }
      ],
      "stateMutability": "nonpayable",
      "type": "constructor"
    },
    {
      "inputs": [],
      "name": "admin",
      "outputs": [
        {
          "internalType": "address",
          "name": "",
          "type": "address"
        }
      ],
      "stateMutability": "view",
      "type": "function"
    },
    {
      "inputs": [],
      "name": "diaToken",
      "outputs": [
        {
          "internalType": "contract IERC20",
          "name": "",
          "type": "address"
        }
      ],
      "stateMutability": "view",
      "type": "function"
    },
    {
      "inputs": [],
      "name": "ticketCount",
      "outputs": [
        {
          "internalType": "uint256",
          "name": "",
          "type": "uint256"
        }
      ],
      "stateMutability": "view",
      "type": "function"
    },
    {
      "inputs": [
        {
          "internalType": "uint256",
          "name": "",
          "type": "uint256"
        }
      ],
      "name": "tickets",
      "outputs": [
        {
          "internalType": "uint256",
          "name": "id",
          "type": "uint256"
        },
        {
          "internalType": "address",
          "name": "owner",
          "type": "address"
        },
        {
          "internalType": "string",
          "name": "details",
          "type": "string"
        },
        {
          "internalType": "bool",
          "name": "isSold",
          "type": "bool"
        }
      ],
      "stateMutability": "view",
      "type": "function"
    },
    {
      "inputs": [
        {
          "internalType": "string",
          "name": "_details",
          "type": "string"
        }
      ],
      "name": "listTicket",
      "outputs": [],
      "stateMutability": "nonpayable",
      "type": "function"
    },
    {
      "inputs": [
        {
          "internalType": "uint256",
          "name": "_id",
          "type": "uint256"
        },
        {
          "internalType": "uint256",
          "name": "_amount",
          "type": "uint256"
        }
      ],
      "name": "purchaseTicket",
      "outputs": [],
      "stateMutability": "nonpayable",
      "type": "function"
    }
  ],
  "bytecode": "0x608060405234801561001057600080fd5b5060405161080138038061080183398101604081905261002f9161005d565b600080546001600160a01b039092166001600160a01b0319928316179055600180549091163317905561008b565b60006020828403121561006e578081fd5b81516001600160a01b0381168114610084578182fd5b9392505050565b6107678061009a6000396000f3fe608060405234801561001057600080fd5b50600436106100625760003560e01c806350b447121461006757806376b3a4ff14610093578063a037e16c146100a8578063bdbbb0cb146100bd578063cfbd900f146100d0578063f851a440146100e5575b600080fd5b61007a610075366004610529565b6100ed565b60405161008a9493929190610640565b60405180910390f35b61009b6101ac565b60405161008a9190610568565b6100bb6100b6366004610488565b6101bb565b005b6100bb6100cb366004610541565b610295565b6100d86103b3565b60405161008a9190610637565b61009b6103b9565b600260208190526000918252604090912080546001820154928201805491936001600160a01b03169291610120906106b9565b80601f016020809104026020016040519081016040528092919081815260200182805461014c906106b9565b80156101995780601f1061016e57610100808354040283529160200191610199565b820191906000526020600020905b81548152906001019060200180831161017c57829003601f168201915b5050506003909301549192505060ff1684565b6000546001600160a01b031681565b6001546001600160a01b031633146101ee5760405162461bcd60e51b81526004016101e5906105f5565b60405180910390fd5b604080516080810182526003548082523360208084019182528385018681526000606086018190529384526002808352959093208451815591516001830180546001600160a01b0319166001600160a01b039092169190911790559151805193949193610263939285019291909101906103c8565b50606091909101516003918201805460ff1916911515919091179055805490600061028d836106f4565b919050555050565b60008281526002602052604090206003015460ff16156102c75760405162461bcd60e51b81526004016101e5906105a0565b6000805483825260026020526040918290206001015491516323b872dd60e01b81526001600160a01b03918216926323b872dd9261030f92339290911690869060040161057c565b602060405180830381600087803b15801561032957600080fd5b505af115801561033d573d6000803e3d6000fd5b505050506040513d601f19601f820116820180604052508101906103619190610461565b61037d5760405162461bcd60e51b81526004016101e5906105cd565b506000908152600260205260409020600180820180546001600160a01b031916331790556003909101805460ff19169091179055565b60035481565b6001546001600160a01b031681565b8280546103d4906106b9565b90600052602060002090601f0160209004810192826103f6576000855561043c565b82601f1061040f57805160ff191683800117855561043c565b8280016001018555821561043c579182015b8281111561043c578251825591602001919060010190610421565b5061044892915061044c565b5090565b5b80821115610448576000815560010161044d565b600060208284031215610472578081fd5b81518015158114610481578182fd5b9392505050565b6000602080838503121561049a578182fd5b823567ffffffffffffffff808211156104b1578384fd5b818501915085601f8301126104c4578384fd5b8135818111156104d6576104d661071b565b604051601f8201601f19168101850183811182821017156104f9576104f961071b565b604052818152838201850188101561050f578586fd5b818585018683013790810190930193909352509392505050565b60006020828403121561053a578081fd5b5035919050565b60008060408385031215610553578081fd5b50508035926020909101359150565b15159052565b6001600160a01b0391909116815260200190565b6001600160a01b039384168152919092166020820152604081019190915260600190565b602080825260139082015272151a58dad95d08185b1c9958591e481cdbdb19606a1b604082015260600190565b6020808252600e908201526d14185e5b595b9d0819985a5b195960921b604082015260600190565b60208082526022908201527f4f6e6c792061646d696e2063616e20706572666f726d2074686973206163746960408201526137b760f11b606082015260800190565b90815260200190565b6000858252602060018060a01b03861681840152608060408401528451806080850152825b818110156106815786810183015185820160a001528201610665565b81811115610692578360a083870101525b50601f01601f1916830160a00191506106b090506060830184610562565b95945050505050565b6002810460018216806106cd57607f821691505b602082108114156106ee57634e487b7160e01b600052602260045260246000fd5b50919050565b600060001982141561071457634e487b7160e01b81526011600452602481fd5b5060010190565b634e487b7160e01b600052604160045260246000fdfea26469706673582212209678891d6b92cc42079c690e45107e4fd93eea5df688acc972539e544f937f3464736f6c63430008000033",
  "immutableReferences": {},
  "source": "// SPDX-License-Identifier: MIT\r\npragma solidity ^0.8.0;\r\n\r\ninterface IERC20 {\r\n    function transferFrom(address sender, address recipient, uint256 amount) external returns (bool);\r\n}\r\n\r\ncontract TicketSale {\r\n    IERC20 public diaToken;\r\n    address public admin;\r\n    struct Ticket {\r\n        uint256 id;\r\n        address owner;\r\n        string details;\r\n        bool isSold;\r\n    }\r\n\r\n    mapping(uint256 => Ticket) public tickets;\r\n    uint256 public ticketCount;\r\n\r\n    constructor(address _diaTokenAddress) {\r\n        diaToken = IERC20(_diaTokenAddress);\r\n        admin = msg.sender;\r\n    }\r\n\r\n    modifier onlyAdmin() {\r\n        require(msg.sender == admin, \"Only admin can perform this action\");\r\n        _;\r\n    }\r\n\r\n    function listTicket(string memory _details) public onlyAdmin {\r\n        tickets[ticketCount] = Ticket({\r\n            id: ticketCount,\r\n            owner: msg.sender,\r\n            details: _details,\r\n            isSold: false\r\n        });\r\n        ticketCount++;\r\n    }\r\n\r\n    function purchaseTicket(uint256 _id, uint256 _amount) public {\r\n        require(!tickets[_id].isSold, \"Ticket already sold\");\r\n        require(diaToken.transferFrom(msg.sender, tickets[_id].owner, _amount), \"Payment failed\");\r\n        tickets[_id].owner = msg.sender;\r\n        tickets[_id].isSold = true;\r\n    }\r\n}\r\n",
  "sourcePath": "C:\\Users\\Win11\\OneDrive\\Desktop\\SkyOnChain\\blockchian\\contracts\\TicketSale.sol",
  "compiler": {
    "name": "solc",
    "version": "0.8.0+commit.c7dfd78e.Emscripten.clang"
  },
  "schemaVersion": "3.4.16",
  "updatedAt": "2024-07-12T08:23:26.973Z",
  "devdoc": {
    "kind": "dev",
    "methods": {},
    "version": 1
  },
  "userdoc": {
    "kind": "user",
    "methods": {},
    "version": 1
  }
}